{
  "contractName": "IoTDeviceManager",
  "abi": [
    {
      "inputs": [],
      "stateMutability": "nonpayable",
      "type": "constructor"
    },
    {
      "anonymous": false,
      "inputs": [
        {
          "indexed": false,
          "internalType": "address",
          "name": "device",
          "type": "address"
        },
        {
          "indexed": false,
          "internalType": "int256",
          "name": "temperature",
          "type": "int256"
        },
        {
          "indexed": false,
          "internalType": "int256",
          "name": "humidity",
          "type": "int256"
        },
        {
          "indexed": false,
          "internalType": "uint256",
          "name": "timestamp",
          "type": "uint256"
        }
      ],
      "name": "DataUpdated",
      "type": "event"
    },
    {
      "anonymous": false,
      "inputs": [
        {
          "indexed": false,
          "internalType": "address",
          "name": "device",
          "type": "address"
        },
        {
          "indexed": false,
          "internalType": "string",
          "name": "name",
          "type": "string"
        }
      ],
      "name": "DeviceAdded",
      "type": "event"
    },
    {
      "anonymous": false,
      "inputs": [
        {
          "indexed": false,
          "internalType": "address",
          "name": "device",
          "type": "address"
        }
      ],
      "name": "DeviceRemoved",
      "type": "event"
    },
    {
      "anonymous": false,
      "inputs": [
        {
          "indexed": false,
          "internalType": "address",
          "name": "device",
          "type": "address"
        },
        {
          "indexed": false,
          "internalType": "enum IoTDeviceManager.DeviceStatus",
          "name": "status",
          "type": "uint8"
        }
      ],
      "name": "DeviceToggled",
      "type": "event"
    },
    {
      "inputs": [
        {
          "internalType": "address",
          "name": "",
          "type": "address"
        }
      ],
      "name": "devices",
      "outputs": [
        {
          "internalType": "bool",
          "name": "isRegistered",
          "type": "bool"
        },
        {
          "internalType": "string",
          "name": "deviceName",
          "type": "string"
        },
        {
          "internalType": "enum IoTDeviceManager.DeviceStatus",
          "name": "status",
          "type": "uint8"
        },
        {
          "internalType": "int256",
          "name": "temperature",
          "type": "int256"
        },
        {
          "internalType": "int256",
          "name": "humidity",
          "type": "int256"
        },
        {
          "internalType": "uint256",
          "name": "timestamp",
          "type": "uint256"
        }
      ],
      "stateMutability": "view",
      "type": "function",
      "constant": true
    },
    {
      "inputs": [],
      "name": "owner",
      "outputs": [
        {
          "internalType": "address",
          "name": "",
          "type": "address"
        }
      ],
      "stateMutability": "view",
      "type": "function",
      "constant": true
    },
    {
      "inputs": [
        {
          "internalType": "address",
          "name": "deviceAddress",
          "type": "address"
        },
        {
          "internalType": "string",
          "name": "name",
          "type": "string"
        }
      ],
      "name": "addDevice",
      "outputs": [],
      "stateMutability": "nonpayable",
      "type": "function"
    },
    {
      "inputs": [
        {
          "internalType": "address",
          "name": "deviceAddress",
          "type": "address"
        }
      ],
      "name": "removeDevice",
      "outputs": [],
      "stateMutability": "nonpayable",
      "type": "function"
    },
    {
      "inputs": [
        {
          "internalType": "address",
          "name": "deviceAddress",
          "type": "address"
        },
        {
          "internalType": "bool",
          "name": "turnOn",
          "type": "bool"
        }
      ],
      "name": "toggleDevice",
      "outputs": [],
      "stateMutability": "nonpayable",
      "type": "function"
    },
    {
      "inputs": [
        {
          "internalType": "int256",
          "name": "temperature",
          "type": "int256"
        },
        {
          "internalType": "int256",
          "name": "humidity",
          "type": "int256"
        }
      ],
      "name": "updateData",
      "outputs": [],
      "stateMutability": "nonpayable",
      "type": "function"
    },
    {
      "inputs": [
        {
          "internalType": "address",
          "name": "deviceAddress",
          "type": "address"
        }
      ],
      "name": "getDevice",
      "outputs": [
        {
          "internalType": "bool",
          "name": "isRegistered",
          "type": "bool"
        },
        {
          "internalType": "string",
          "name": "name",
          "type": "string"
        },
        {
          "internalType": "enum IoTDeviceManager.DeviceStatus",
          "name": "status",
          "type": "uint8"
        },
        {
          "internalType": "int256",
          "name": "temperature",
          "type": "int256"
        },
        {
          "internalType": "int256",
          "name": "humidity",
          "type": "int256"
        },
        {
          "internalType": "uint256",
          "name": "timestamp",
          "type": "uint256"
        }
      ],
      "stateMutability": "view",
      "type": "function",
      "constant": true
    }
  ],
  "bytecode": "0x608060405234801561001057600080fd5b50336000806101000a81548173ffffffffffffffffffffffffffffffffffffffff021916908373ffffffffffffffffffffffffffffffffffffffff160217905550611532806100606000396000f3fe608060405234801561001057600080fd5b506004361061007c5760003560e01c80636c71bbe71161005b5780636c71bbe7146100ee5780638da5cb5b1461010a578063ca7d166714610128578063e7b4cac6146101445761007c565b8062d55318146100815780631f7b6324146100b65780634e8b4e19146100d2575b600080fd5b61009b60048036038101906100969190610ee3565b610179565b6040516100ad969594939291906111d5565b60405180910390f35b6100d060048036038101906100cb9190610ee3565b610357565b005b6100ec60048036038101906100e79190610f9c565b610540565b005b61010860048036038101906101039190610f0c565b6107e6565b005b610112610a2d565b60405161011f919061111c565b60405180910390f35b610142600480360381019061013d9190610f48565b610a51565b005b61015e60048036038101906101599190610ee3565b610c7b565b604051610170969594939291906111d5565b60405180910390f35b600060606000806000806000600160008973ffffffffffffffffffffffffffffffffffffffff1673ffffffffffffffffffffffffffffffffffffffff1681526020019081526020016000206040518060c00160405290816000820160009054906101000a900460ff161515151581526020016001820180546101fa906113d3565b80601f0160208091040260200160405190810160405280929190818152602001828054610226906113d3565b80156102735780601f1061024857610100808354040283529160200191610273565b820191906000526020600020905b81548152906001019060200180831161025657829003601f168201915b505050505081526020016002820160009054906101000a900460ff1660018111156102c7577f4e487b7100000000000000000000000000000000000000000000000000000000600052602160045260246000fd5b60018111156102ff577f4e487b7100000000000000000000000000000000000000000000000000000000600052602160045260246000fd5b815260200160038201548152602001600482015481526020016005820154815250509050806000015181602001518260400151836060015184608001518560a001519650965096509650965096505091939550919395565b60008054906101000a900473ffffffffffffffffffffffffffffffffffffffff1673ffffffffffffffffffffffffffffffffffffffff163373ffffffffffffffffffffffffffffffffffffffff16146103e5576040517f08c379a00000000000000000000000000000000000000000000000000000000081526004016103dc9061125d565b60405180910390fd5b600160008273ffffffffffffffffffffffffffffffffffffffff1673ffffffffffffffffffffffffffffffffffffffff16815260200190815260200160002060000160009054906101000a900460ff16610474576040517f08c379a000000000000000000000000000000000000000000000000000000000815260040161046b9061123d565b60405180910390fd5b600160008273ffffffffffffffffffffffffffffffffffffffff1673ffffffffffffffffffffffffffffffffffffffff168152602001908152602001600020600080820160006101000a81549060ff02191690556001820160006104d89190610d59565b6002820160006101000a81549060ff021916905560038201600090556004820160009055600582016000905550507f15c62ec158a6c18af42b447791266b9b0764ba2a6df610890d4da85c3d4185db81604051610535919061111c565b60405180910390a150565b600160003373ffffffffffffffffffffffffffffffffffffffff1673ffffffffffffffffffffffffffffffffffffffff16815260200190815260200160002060000160009054906101000a900460ff166105cf576040517f08c379a00000000000000000000000000000000000000000000000000000000081526004016105c69061123d565b60405180910390fd5b600180811115610608577f4e487b7100000000000000000000000000000000000000000000000000000000600052602160045260246000fd5b600160003373ffffffffffffffffffffffffffffffffffffffff1673ffffffffffffffffffffffffffffffffffffffff16815260200190815260200160002060020160009054906101000a900460ff166001811115610690577f4e487b7100000000000000000000000000000000000000000000000000000000600052602160045260246000fd5b146106d0576040517f08c379a00000000000000000000000000000000000000000000000000000000081526004016106c79061127d565b60405180910390fd5b81600160003373ffffffffffffffffffffffffffffffffffffffff1673ffffffffffffffffffffffffffffffffffffffff1681526020019081526020016000206003018190555080600160003373ffffffffffffffffffffffffffffffffffffffff1673ffffffffffffffffffffffffffffffffffffffff1681526020019081526020016000206004018190555042600160003373ffffffffffffffffffffffffffffffffffffffff1673ffffffffffffffffffffffffffffffffffffffff168152602001908152602001600020600501819055507f825890e42e82e36d9e14f3428cbcc1b5e925e69263c76ad2011498ae128e2b84338383426040516107da9493929190611160565b60405180910390a15050565b60008054906101000a900473ffffffffffffffffffffffffffffffffffffffff1673ffffffffffffffffffffffffffffffffffffffff163373ffffffffffffffffffffffffffffffffffffffff1614610874576040517f08c379a000000000000000000000000000000000000000000000000000000000815260040161086b9061125d565b60405180910390fd5b600160008373ffffffffffffffffffffffffffffffffffffffff1673ffffffffffffffffffffffffffffffffffffffff16815260200190815260200160002060000160009054906101000a900460ff16610903576040517f08c379a00000000000000000000000000000000000000000000000000000000081526004016108fa9061123d565b60405180910390fd5b8061090f576000610912565b60015b600160008473ffffffffffffffffffffffffffffffffffffffff1673ffffffffffffffffffffffffffffffffffffffff16815260200190815260200160002060020160006101000a81548160ff0219169083600181111561099c577f4e487b7100000000000000000000000000000000000000000000000000000000600052602160045260246000fd5b02179055507f9b531027c796b262f7e2cebd74e8eac0c1f080ff88e54e4dd68814d8456e49d282600160008573ffffffffffffffffffffffffffffffffffffffff1673ffffffffffffffffffffffffffffffffffffffff16815260200190815260200160002060020160009054906101000a900460ff16604051610a21929190611137565b60405180910390a15050565b60008054906101000a900473ffffffffffffffffffffffffffffffffffffffff1681565b60008054906101000a900473ffffffffffffffffffffffffffffffffffffffff1673ffffffffffffffffffffffffffffffffffffffff163373ffffffffffffffffffffffffffffffffffffffff1614610adf576040517f08c379a0000000000000000000000000000000000000000000000000000000008152600401610ad69061125d565b60405180910390fd5b6040518060c0016040528060011515815260200182815260200160006001811115610b33577f4e487b7100000000000000000000000000000000000000000000000000000000600052602160045260246000fd5b815260200160008152602001600081526020016000815250600160008473ffffffffffffffffffffffffffffffffffffffff1673ffffffffffffffffffffffffffffffffffffffff16815260200190815260200160002060008201518160000160006101000a81548160ff0219169083151502179055506020820151816001019080519060200190610bc6929190610d99565b5060408201518160020160006101000a81548160ff02191690836001811115610c18577f4e487b7100000000000000000000000000000000000000000000000000000000600052602160045260246000fd5b0217905550606082015181600301556080820151816004015560a082015181600501559050507f1296eb8b333c4b053b642e1d7810fbba75bb4f1654e9599e085f5e2788542a538282604051610c6f9291906111a5565b60405180910390a15050565b60016020528060005260406000206000915090508060000160009054906101000a900460ff1690806001018054610cb1906113d3565b80601f0160208091040260200160405190810160405280929190818152602001828054610cdd906113d3565b8015610d2a5780601f10610cff57610100808354040283529160200191610d2a565b820191906000526020600020905b815481529060010190602001808311610d0d57829003601f168201915b5050505050908060020160009054906101000a900460ff16908060030154908060040154908060050154905086565b508054610d65906113d3565b6000825580601f10610d775750610d96565b601f016020900490600052602060002090810190610d959190610e1f565b5b50565b828054610da5906113d3565b90600052602060002090601f016020900481019282610dc75760008555610e0e565b82601f10610de057805160ff1916838001178555610e0e565b82800160010185558215610e0e579182015b82811115610e0d578251825591602001919060010190610df2565b5b509050610e1b9190610e1f565b5090565b5b80821115610e38576000816000905550600101610e20565b5090565b6000610e4f610e4a846112ce565b61129d565b905082815260208101848484011115610e6757600080fd5b610e72848285611391565b509392505050565b600081359050610e89816114b7565b92915050565b600081359050610e9e816114ce565b92915050565b600081359050610eb3816114e5565b92915050565b600082601f830112610eca57600080fd5b8135610eda848260208601610e3c565b91505092915050565b600060208284031215610ef557600080fd5b6000610f0384828501610e7a565b91505092915050565b60008060408385031215610f1f57600080fd5b6000610f2d85828601610e7a565b9250506020610f3e85828601610e8f565b9150509250929050565b60008060408385031215610f5b57600080fd5b6000610f6985828601610e7a565b925050602083013567ffffffffffffffff811115610f8657600080fd5b610f9285828601610eb9565b9150509250929050565b60008060408385031215610faf57600080fd5b6000610fbd85828601610ea4565b9250506020610fce85828601610ea4565b9150509250929050565b610fe18161131a565b82525050565b610ff08161132c565b82525050565b610fff8161137f565b82525050565b61100e8161134b565b82525050565b600061101f826112fe565b6110298185611309565b93506110398185602086016113a0565b61104281611492565b840191505092915050565b600061105a601583611309565b91507f446576696365206e6f74207265676973746572656400000000000000000000006000830152602082019050919050565b600061109a601283611309565b91507f4e6f7420636f6e7472616374206f776e657200000000000000000000000000006000830152602082019050919050565b60006110da600d83611309565b91507f446576696365206973204f4646000000000000000000000000000000000000006000830152602082019050919050565b61111681611375565b82525050565b60006020820190506111316000830184610fd8565b92915050565b600060408201905061114c6000830185610fd8565b6111596020830184610ff6565b9392505050565b60006080820190506111756000830187610fd8565b6111826020830186611005565b61118f6040830185611005565b61119c606083018461110d565b95945050505050565b60006040820190506111ba6000830185610fd8565b81810360208301526111cc8184611014565b90509392505050565b600060c0820190506111ea6000830189610fe7565b81810360208301526111fc8188611014565b905061120b6040830187610ff6565b6112186060830186611005565b6112256080830185611005565b61123260a083018461110d565b979650505050505050565b600060208201905081810360008301526112568161104d565b9050919050565b600060208201905081810360008301526112768161108d565b9050919050565b60006020820190508181036000830152611296816110cd565b9050919050565b6000604051905081810181811067ffffffffffffffff821117156112c4576112c3611463565b5b8060405250919050565b600067ffffffffffffffff8211156112e9576112e8611463565b5b601f19601f8301169050602081019050919050565b600081519050919050565b600082825260208201905092915050565b600061132582611355565b9050919050565b60008115159050919050565b6000819050611346826114a3565b919050565b6000819050919050565b600073ffffffffffffffffffffffffffffffffffffffff82169050919050565b6000819050919050565b600061138a82611338565b9050919050565b82818337600083830152505050565b60005b838110156113be5780820151818401526020810190506113a3565b838111156113cd576000848401525b50505050565b600060028204905060018216806113eb57607f821691505b602082108114156113ff576113fe611434565b5b50919050565b7f4e487b7100000000000000000000000000000000000000000000000000000000600052602160045260246000fd5b7f4e487b7100000000000000000000000000000000000000000000000000000000600052602260045260246000fd5b7f4e487b7100000000000000000000000000000000000000000000000000000000600052604160045260246000fd5b6000601f19601f8301169050919050565b600281106114b4576114b3611405565b5b50565b6114c08161131a565b81146114cb57600080fd5b50565b6114d78161132c565b81146114e257600080fd5b50565b6114ee8161134b565b81146114f957600080fd5b5056fea2646970667358221220bdf8c1ce738cda9d7e887251133b827b71d44e1f0105fab3a595ae7a4c71723f64736f6c63430008000033",
  "immutableReferences": {},
  "source": "// SPDX-License-Identifier: MIT\r\npragma solidity ^0.8.0;\r\n\r\ncontract IoTDeviceManager {\r\n    address public owner;\r\n\r\n    enum DeviceStatus { OFF, ON }\r\n\r\n    struct Device {\r\n        bool isRegistered;\r\n        string deviceName;\r\n        DeviceStatus status;\r\n        int256 temperature;\r\n        int256 humidity;\r\n        uint256 timestamp;\r\n    }\r\n\r\n    mapping(address => Device) public devices;\r\n\r\n    event DeviceAdded(address device, string name);\r\n    event DeviceRemoved(address device);\r\n    event DeviceToggled(address device, DeviceStatus status);\r\n    event DataUpdated(address device, int256 temperature, int256 humidity, uint256 timestamp);\r\n\r\n    modifier onlyOwner() {\r\n        require(msg.sender == owner, \"Not contract owner\");\r\n        _;\r\n    }\r\n\r\n    modifier onlyRegistered() {\r\n        require(devices[msg.sender].isRegistered, \"Device not registered\");\r\n        _;\r\n    }\r\n\r\n    constructor() {\r\n        owner = msg.sender;\r\n    }\r\n\r\n    function addDevice(address deviceAddress, string memory name) public onlyOwner {\r\n        devices[deviceAddress] = Device(true, name, DeviceStatus.OFF, 0, 0, 0);\r\n        emit DeviceAdded(deviceAddress, name);\r\n    }\r\n\r\n    function removeDevice(address deviceAddress) public onlyOwner {\r\n        require(devices[deviceAddress].isRegistered, \"Device not registered\");\r\n        delete devices[deviceAddress];\r\n        emit DeviceRemoved(deviceAddress);\r\n    }\r\n\r\n    function toggleDevice(address deviceAddress, bool turnOn) public onlyOwner {\r\n        require(devices[deviceAddress].isRegistered, \"Device not registered\");\r\n        devices[deviceAddress].status = turnOn ? DeviceStatus.ON : DeviceStatus.OFF;\r\n        emit DeviceToggled(deviceAddress, devices[deviceAddress].status);\r\n    }\r\n\r\n    function updateData(int256 temperature, int256 humidity) public onlyRegistered {\r\n        require(devices[msg.sender].status == DeviceStatus.ON, \"Device is OFF\");\r\n        devices[msg.sender].temperature = temperature;\r\n        devices[msg.sender].humidity = humidity;\r\n        devices[msg.sender].timestamp = block.timestamp;\r\n        emit DataUpdated(msg.sender, temperature, humidity, block.timestamp);\r\n    }\r\n\r\n    function getDevice(address deviceAddress) public view returns (\r\n        bool isRegistered,\r\n        string memory name,\r\n        DeviceStatus status,\r\n        int256 temperature,\r\n        int256 humidity,\r\n        uint256 timestamp\r\n    ) {\r\n        Device memory d = devices[deviceAddress];\r\n        return (d.isRegistered, d.deviceName, d.status, d.temperature, d.humidity, d.timestamp);\r\n    }\r\n}\r\n",
  "sourcePath": "C:\\Users\\sa634\\Desktop\\node red\\iot-blockchain\\contracts\\IoTDeviceManager.sol",
  "compiler": {
    "name": "solc",
    "version": "0.8.0+commit.c7dfd78e.Emscripten.clang"
  },
  "schemaVersion": "3.4.16",
  "updatedAt": "2025-06-14T04:00:58.953Z",
  "networkType": "ethereum",
  "devdoc": {
    "kind": "dev",
    "methods": {},
    "version": 1
  },
  "userdoc": {
    "kind": "user",
    "methods": {},
    "version": 1
  }
}